:1000000002C100002EC100002CC100002AC1000066
:1000100028C1000026C1000024C1000022C1000048
:1000200020C100001EC100001CC100001AC1000058
:1000300018C1000016C1000014C1000012C1000068
:1000400010C100000EC100000CC100000AC1000078
:1000500008C1000006C1000004C10000C9C30000BF
:1000600000C1000038C400000DC40000FAC0000048
:10007000F8C00000F6C00000F4C00000F2C00000AC
:10008000F0C00000EEC00000ECC00000EAC00000BC
:10009000E8C00000E6C00000E4C0000052C4000058
:1000A000E0C00000DEC00000DCC00000DAC00000DC
:1000B000D8C00000D6C00000D4C00000D2C00000EC
:1000C000D0C00000CEC00000CCC00000CAC00000FC
:1000D000C8C00000C6C00000C4C00000C2C000000C
:1000E000C0C00000000020002300260029002C00D2
:1000F0002F00320000010000030106010901000089
:100100000A0B02090C0D0E08070304010000000091
:1001100000000000000000000000000000000000DF
:10012000000000000000000000001211100000009C
:1001300000000000000000000000000000000000BF
:100140000000000000002200250028002B002E00E7
:100150003100340002010000050108010B0100001C
:100160002100240027002A002D0030003300010167
:100170000000040107010A01050505050705080837
:100180000808020202020A0A080804040404010121
:100190000101010101010303030303030303040736
:1001A00007070C0C0C0C0C0C0C0C020202020606CD
:1001B0000606060606060B0B0B0B0B0B0B0B0102C0
:1001C0001020200808102040102040800201020169
:1001D0000804020101020408102040808040201021
:1001E000080402018004020180402010080402017A
:1001F00008040201010204081020408001020408E2
:1002000010204080C40511241FBECFEFD1E2DEBF15
:10021000CDBF00E00CBF12E0A0E0B2E0E0E5FFE0FF
:1002200000E00BBF02C007900D92A835B107D9F7C7
:1002300023E0A8E5B2E001C01D92A33AB207E1F7BE
:1002400011E0C3E0D1E000E005C021970109802F53
:10025000FE0174D6C230D10780E00807B1F7CDD4D3
:1002600075C6CECECF93DF9390E0FC01E254FE4FF3
:10027000249188589E4FFC0184918823C1F090E01E
:10028000880F991FFC01E25AFE4FC591D491FC01E1
:10029000EC5BFE4FA591B4919FB7F8943881822F03
:1002A000809583238883EC91E22BEC939FBFDF91B1
:1002B000CF9108958150823108F059C0E82FF0E0C5
:1002C0008827EB59FE4F8F4F39C685018901770189
:1002D0007D018101B7018C01920196019C01A00171
:1002E000A401AA01AE01B701B201B801BC0180911D
:1002F00080008F77809380000895809180008F7DAB
:10030000F9CF80918000877FF5CF84B58F7784BD4A
:10031000089584B58F7DFBCF8091B0008F77809357
:10032000B00008958091B0008F7DF9CF809190004A
:100330008F77809390000895809190008F7DF9CF02
:1003400080919000877FF5CF8091A0008F77809378
:10035000A00008958091A0008F7DF9CF8091A0002A
:10036000877FF5CF809120018F77809320010895BA
:10037000809120018F7DF9CF80912001877FF5CF7B
:10038000CF93DF93282F30E0F901E250FF4F8491A3
:10039000F901E254FE4FD491F901E858FE4FC4919F
:1003A000CC2381F0811186DFEC2FF0E0EE0FFF1FF0
:1003B000EC5BFE4FA591B4918FB7F894EC91DE2BD6
:1003C000DC938FBFDF91CF9108953FB7F894809170
:1003D000F6029091F702A091F802B091F90226B5C9
:1003E000A89B05C02F3F19F00196A11DB11D3FBF6D
:1003F000BA2FA92F982F8827BC01CD01620F711D3C
:10040000811D911D42E0660F771F881F991F4A9535
:10041000D1F70895E091EA02F091EB02309729F0CC
:100420001092E7021092E602199408950895AF928F
:10043000BF92CF92DF92EF92FF920F931F93CF93D1
:10044000DF936C017B018B01040F151FEB015E0133
:10045000AE18BF08C017D10759F06991D601ED91C8
:10046000FC910190F081E02DC6011995892B79F757
:10047000C501DF91CF911F910F91FF90EF90DF9019
:10048000CF90BF90AF900895FC01538D448D252FE0
:1004900030E0842F90E0821B930B541710F0CF961E
:1004A000089501970895FC01918D828D981761F050
:1004B000A28DAE0FBF2FB11D5D968C91928D9F5F67
:1004C0009F73928F90E008958FEF9FEF0895FC0146
:1004D000918D828D981731F0828DE80FF11D858DF9
:1004E00090E008958FEF9FEF0895FC01918D228D8C
:1004F000892F90E0805C9F4F821B91098F73992711
:1005000008958AEF92E0F1DF21E0892B09F420E0E1
:10051000822F0895FC01A48DA80FB92FB11DA35AF5
:10052000BF4F2C91848D90E001968F739927848F13
:10053000A689B7892C93A089B1898C918370806436
:100540008C93938D848D981306C00288F389E02DD7
:1005500080818F7D80830895EF92FF920F931F9388
:10056000CF93DF93EC0181E0888F9B8D8C8D981366
:100570001AC0E889F989808185FF15C09FB7F89472
:10058000EE89FF896083E889F989808183708064BE
:1005900080839FBF81E090E0DF91CF911F910F9109
:1005A000FF90EF900895F62E0B8D10E00F5F1F4F18
:1005B0000F731127E02E8C8D8E110BC00FB607FC28
:1005C000FACFE889F989808185FFF5CFCE01A2DFD6
:1005D000F2CFEB8DEC0FFD2FF11DE35AFF4FF082B0
:1005E0009FB7F8940B8FEA89FB8980818062D0CF16
:1005F000CF93DF93EC01888D8823B1F0AA89BB8962
:10060000E889F9898C9185FD03C0808186FD0CC045
:100610000FB607FCF7CF8C9185FFF2CF808185FF65
:10062000EDCFCE0177DFEACFDF91CF91089580E063
:1006300090E0892B21F065DF81110E94000080E0AD
:1006400090E0892B49F080E090E0892B29F00E940E
:10065000000081110E94000080E090E0892B49F0A9
:1006600080E090E0892B29F00E94000081110E9417
:10067000000080E090E0892B49F080E090E0892B39
:1006800029F00E94000081110C9400000895089543
:10069000E091E9028091E802E81730F4F0E0E154DB
:1006A000FD4F808190E008958FEF9FEF0895909126
:1006B000E9028091E8022FEF3FEF981748F4E92F05
:1006C000F0E0E154FD4F208130E09F5F9093E9021C
:1006D000C90108958091E8029091E902891B990B64
:1006E000089590E080E0089585ED8093BC008091AE
:1006F000BC0084FDFCCF1092E502089520917802A1
:10070000260F3327331F21323105ECF42091E50207
:10071000FC0190E080E0243069F082E00895A0912F
:1007200078022191AC01485A5D4FA40FB52FB11D3D
:100730002C930196861798F380917802680F609346
:10074000780280E0089581E00895CF93DF93CB0194
:10075000EA01642FD3DFCE01DF91CF910895CF93CB
:10076000DF931F92CDB7DEB7698361E0CE010196BA
:10077000C5DF81E090E00F90DF91CF910895FB01FC
:1007800001900020E9F73197AF01461B570BDC01C0
:10079000ED91FC910280F381E02D199461157105B2
:1007A00009F0EDCF90E080E0089560E572E087E920
:1007B00093E0F4DF60E572E087E993E0EFDF60E566
:1007C00072E087E993E0EADF60E572E087E993E0B1
:1007D000E5DF60E572E087E993E0E0DF64E572E081
:1007E0008AEF92E0CCDF62E572E08AEF92E0C7CF59
:1007F0001F920F920FB60F9211242F933F938F9356
:100800009F93AF93BF938091F2029091F302A091D6
:10081000F402B091F5023091F10223E0230F2D375D
:1008200058F50196A11DB11D2093F1028093F202AB
:100830009093F302A093F402B093F5028091F60234
:100840009091F702A091F802B091F9020196A11DD2
:10085000B11D8093F6029093F702A093F802B09333
:10086000F902BF91AF919F918F913F912F910F907E
:100870000FBE0F901F90189526E8230F0296A11D1A
:10088000B11DD2CF1F920F920FB60F9211240BB64B
:100890000F922F933F934F935F936F937F938F9319
:1008A0009F93AF93BF93EF93FF938AEF92E032DE73
:1008B000FF91EF91BF91AF919F918F917F916F9138
:1008C0005F914F913F912F910F900BBE0F900FBEF4
:1008D0000F901F9018951F920F920FB60F92112430
:1008E0000BB60F922F938F939F93EF93FF93E0910B
:1008F0000A03F0910B038081E0911003F091110342
:1009000082FD1DC09081809113038F5F8F732091B2
:100910001403821741F0E0911303F0E0E650FD4F1D
:10092000958F80931303FF91EF919F918F912F915A
:100930000F900BBE0F900FBE0F901F9018958081E7
:10094000F2CF1F920F920FB60F9211240BB60F9297
:100950002F933F934F935F936F937F938F939F93C7
:10096000AF93BF93EF93FF938091B900887F803658
:1009700009F44CC008F03FC0883209F4A8C028F53B
:10098000803109F49CC0C8F4882309F4FAC0883087
:1009900009F495C0FF91EF91BF91AF919F918F9115
:1009A0007F916F915F914F913F912F910F900BBE6F
:1009B0000F900FBE0F901F901895883109F487C0D3
:1009C000803241F780939B0214C0803409F49CC0AC
:1009D00040F48033B9F38833E9F680939B0285ECC9
:1009E000AFC0803509F484C0883509F495C08834D7
:1009F00089F67ADECFCF883909F48CC038F588378C
:100A000029F050F4883611F0803721F683E0809386
:100A1000E50210929A0257C0883809F47BC08039E9
:100A200019F0803809F0B6CF80919A02803208F030
:100A300071C0E0919A0281E08E0F80939A028091BA
:100A4000BB00F0E0E658FD4F80833DC0803B39F0AD
:100A5000E0F4803A09F479C0883A09F09BCF84E049
:100A60008093E5021092790210927802E091E102FF
:100A7000F091E20219958091780281110FC081E016
:100A8000809378021092580209C0803C09F4A7CFE5
:100A9000883C09F4A4CF883B09F07CCFE09179022F
:100AA00081E08E0F80937902F0E0E85AFD4F80815B
:100AB0008093BB00909179028091780229C0809147
:100AC000BE028093BB0085EC8093BC0063CF909105
:100AD000BD028091BC02981758F5E091BD0281E0FB
:100AE0008E0F8093BD02F0E0E456FD4F8081E9CF88
:100AF000E091BD0281E08E0F8093BD028091BB002A
:100B0000F0E0E456FD4F80839091BD028091BC02DD
:100B10009817C8F285E8D8CFE091BD0281E08E0F2A
:100B20008093BD028091BB00F0E0E456FD4F8083CE
:100B30008091E40281115DCF81E08093E30284EA39
:100B40008093BC001092E50225CF85EC8093BC0019
:100B50001092E50280919A02803230F4E0919A027C
:100B6000F0E0E658FD4F108260919A0270E0E0914B
:100B7000DF02F091E0028AE792E0199510929A0262
:100B800009CF10929B0235CFEAEFF2E01382128276
:100B900088EE93E0A0E0B0E084839583A683B783DA
:100BA00020E332E03183208325EC30E03587248751
:100BB00024EC30E03787268720EC30E0318B208B27
:100BC00021EC30E0338B228B22EC30E0358B248B10
:100BD00026EC30E0378B268B118E128E138E148EFE
:100BE000E7E9F3E01382128284839583A683B783B7
:100BF00082E492E0918380830895789484B5826042
:100C000084BD84B5816084BD85B5826085BD85B5B0
:100C1000816085BD80916E00816080936E0010922E
:100C200081008091810082608093810080918100A9
:100C3000816080938100809180008160809380003A
:100C40008091B10084608093B1008091B000816098
:100C50008093B00080919100826080939100809198
:100C600091008160809391008091900081608093D9
:100C700090008091A10082608093A1008091A100EA
:100C800081608093A1008091A00081608093A0008A
:100C900080912101826080932101809121018160F6
:100CA00080932101809120018160809320018091B7
:100CB0007A00846080937A0080917A0082608093C9
:100CC0007A0080917A00816080937A0080917A0026
:100CD000806880937A001092C1001092E90210920D
:100CE000E8021092E7021092E6021092E50281E01B
:100CF0008093E4021092E30284E142DB85E140DB71
:100D00008091B9008E7F8093B9008091B9008D7F6A
:100D10008093B90088E48093B80085E48093BC0098
:100D20008AE092E09093E2028093E10286E192E011
:100D30009093E0028093DF0284E08093BA0085ED17
:100D400093E09093EB028093EA02E0910A03F09122
:100D50000B0382E08083E0910603F0910703108289
:100D6000E0910803F091090380E18083109212035F
:100D7000E0910E03F0910F0386E08083E0910C0375
:100D8000F0910D03808180618083E0910C03F091EC
:100D90000D03808188608083E0910C03F0910D0346
:100DA000808180688083E0910C03F0910D03808145
:100DB0008F7D808387E156DA89E154DA81E252DA65
:100DC0008BE150DA83E24EDA8DE14CDA85E24ADAE1
:100DD0008FE148DA87E246DA89E244DA8BE242DAE6
:100DE0008DE240DA8CE23EDA06E112E03CE2E32EEC
:100DF00032E0F32ECC24C394C0E0D2E029913991A3
:100E00003327F901E250FF4F8491F901E254FE4F7C
:100E1000D490F901E858FE4FB490BB2009F48BC080
:100E2000811148DAEB2DF0E0EE0FFF1FEC51FF4F80
:100E3000A591B491EC91DE2231E020E009F430E09C
:100E4000832F922F2C893D892817390799F02FB7C6
:100E5000F8944091F2025091F3026091F402709183
:100E6000F5022FBF4093ED025093EE026093EF0224
:100E70007093F0022FB7F8944091F2025091F30270
:100E80006091F4027091F5022FBF8090ED02909076
:100E9000EE02A090EF02B090F002481959096A09D9
:100EA0007B09433351056105710548F02C893D8963
:100EB0002817390721F09D8B8C8BC092EC02809112
:100EC000EC02882381F096E1A92E92E0B92EF5017B
:100ED000619171915F016B5A7D4F8AEF92E05EDC08
:100EE000EA14FB04A1F70C171D0709F087CF6DDA90
:100EF0002B013C0184E6882E912CA12CB12C65DAC3
:100F00006419750986099709683E73408105910542
:100F1000B0F3F1E08F1A9108A108B10828EE420E53
:100F200023E0521E611C711C81149104A104B104C0
:100F300031F77DDB61CF90E080E084CFEE0FFF1FC3
:100F4000881F8BBF0790F691E02D1994F894FFCF7E
:100F5000190021001B0023001D0025001F00270091
:100F60002D002B001700010001000100010001000D
:100F7000010001000100010001000100000000006B
:100F8000AC0217024402F802750253026702000025
:100F90000000AF03A503710347036A035703480327
:080FA0003B000D0A00200000D7
:00000001FF
